## Example of Constructing ID Transactions in the Mainnet

### Preliminaries

##### Offline key pair: `<sk_f>, <pk_f>, <identifier>`

`<pk_f>` :
04c11f0db597b264746e3042096955a5f8509d2374320b02900c2b9995073a524498d7d8345b5d4a8d0a188c5f4a599ec97d592c6a7a38a00fecc1c46dd7bd4059


`<sk_f>` : 5K1DBNURcAC1Vd4DzZTdLTMteeJNoKYg5CXXKDp4BDyExbRRsn2

`identifier`: 14twYcyj9nXpUzh3gJAgyqZ2W5Up1cRZML

`identifier(hex)`: 2abb1f98b76bdc4380138c09040a5838b6847f12


##### Online key pair: `<sk_o>, <pk_o>, <address>`

`<pk_o>`: 04a434aa7ac19a69558243772914f79281b555ffed2f825a78006ef6f51b1ed6f48add6538e56d067f7d4f6d4cb9efb59d6e83ff26e40a0559bd0c1e53456c1617

`<sk_o>`: 5KNuBpKnwWpjCkQRGbd4Dx26vQ5KuwovAvuHYu1S4KjM51vVKbY

`identifier`: 1PySstbQfTCcm9Q8tC2N85xcupH3o7zeae

`identifier(hex)`: fbffa997e319a72ba2a812933626f6d658dc534b



##### Redeem key pair `<sk_r>, <pk_r>, <address>`

`<pk_r>` : 04f6dcea0cb836e2343b96b6fae8b8aa09f0488d58c469830e16e1a5db6e471ad32b038d583d7fc8e32b7e8d68c19b03cdfad4b33811c061040329f6a2fd9714d5

`<sk_r>` : 5Kh9WZCtQ79B7b7xmTqEUTchRuPs8MjNVB7CYmRJ1WiNQK1dzBi

`identifier`: 1Jc6WNoghY63Nnfws5fAGFjRXemQiWqgdw

`identifier(hex)`: c11d4b272ae99f5e7dc87dbeae633c623d1c3ee7

##### A random pointer

`pointer`: 1KWTQLVAuoU77H7JDqvh3UYNy77NeRQiXc

`pointer hex`: cb045dd7539de812bf2d5af41780003dc604d350

### Process of Constructing

##### Transfer some bitcoins to online address

	bitcoin-cli -rpcuser=rpc -rpcpassword=x -rpcport=10340 createrawtransaction '[{"txid":"35ed1715a69d7d67c2afcfb80a0793aaaa660ea5bff6c0dc02508135a00a7414","vout":0}]' '{"1PySstbQfTCcm9Q8tC2N85xcupH3o7zeae":19.95}'

	bitcoin-cli -rpcuser=rpc -rpcpassword=x -rpcport=10340 signrawtransaction "020000000114740aa035815002dcc0f6bfa50e66aaaa93070ab8cfafc2677d9da61517ed350000000000ffffffff01c048e976000000001976a914fbffa997e319a72ba2a812933626f6d658dc534b88ac00000000" '[{"txid":"35ed1715a69d7d67c2afcfb80a0793aaaa660ea5bff6c0dc02508135a00a7414","vout":0,"scriptPubKey":"76a91462a9f839f180b2bd217e025cb8fb7afbce69dafa88ac"}]' '["KzfsUGsbnkc48uDMwfivZJkfFgu2kBADFZ8RMzWue7efGfmv9dXQ"]' "ALL"

	bitcoin-cli -rpcuser=rpc -rpcpassword=x -rpcport=10340 sendrawtransaction 020000000114740aa035815002dcc0f6bfa50e66aaaa93070ab8cfafc2677d9da61517ed35000000006b483045022100c2e0d231d3d3664d7e78d2ca6f08ec3e99350e1f906343067719f3de8896a69d022018089a38680079d04aedc2eb333a5100f2382232e15382e6cb3fc12db55ae217012102bc038218fac822324249815ced689271b984736e554eab92485181c2d7f59723ffffffff01c048e976000000001976a914fbffa997e319a72ba2a812933626f6d658dc534b88ac00000000

	txid: 0e28320c199016d701190b6761163c062624e13990cba810a9f238f1e7230b5f

##### First P2SH transaction (PRE_REG TX)


1. REG_TX redeem script

		<pointer> DROP DUP HASH160 <identifier> EQUALVERFY CHECKSIG

		cb045dd7539de812bf2d5af41780003dc604d350 OP_DROP OP_DUP OP_HASH160 2abb1f98b76bdc4380138c09040a5838b6847f12 OP_EQUALVERIFY OP_CHECKSIG

		// Push them to the stack format: (14 means how many bytes the following parameters that will be pushed to the stack)
		14 cb045dd7539de812bf2d5af41780003dc604d350 75 76 a9 14 2abb1f98b76bdc4380138c09040a5838b6847f12 88 ac

		Namely, 14cb045dd7539de812bf2d5af41780003dc604d3507576a9142abb1f98b76bdc4380138c09040a5838b6847f1288ac

	Try to test the redeem script:

		bitcoin-cli -rpcuser=rpc -rpcpassword=x -rpcport=10340 decodescript 14cb045dd7539de812bf2d5af41780003dc604d3507576a9142abb1f98b76bdc4380138c09040a5838b6847f1288ac
		{
		  "asm": "cb045dd7539de812bf2d5af41780003dc604d350 OP_DROP OP_DUP OP_HASH160 2abb1f98b76bdc4380138c09040a5838b6847f12 OP_EQUALVERIFY OP_CHECKSIG",
		  "type": "nonstandard",
		  "p2sh": "3QuiMBHvJfvZxXHesdCRprudtoBonsHyYL"
		}

2. Constructing the locking script

		OP_HASH160 [Hash160(redeemScript)] OP_EQUAL

		OP_HASH160 3QuiMBHvJfvZxXHesdCRprudtoBonsHyYL OP_EQUAL

		Namely, a914feb1a122b740e102e1dbae1cbb0cb83550909ea887

3. Creating, Signing, and Sending the PRE_REG P2SH transaction

	Previous txid: 0e28320c199016d701190b6761163c062624e13990cba810a9f238f1e7230b5f

		bitcoin-cli -rpcuser=rpc -rpcpassword=x -rpcport=10340  createrawtransaction '[{"txid":"0e28320c199016d701190b6761163c062624e13990cba810a9f238f1e7230b5f","vout":0}]' '{"3QuiMBHvJfvZxXHesdCRprudtoBonsHyYL":19.9}'

		bitcoin-cli -rpcuser=rpc -rpcpassword=x -rpcport=10340  signrawtransaction "02000000015f0b23e7f138f2a910a8cb9039e12426063c1661670b1901d71690190c32280e0000000000ffffffff0180fd9c760000000017a914feb1a122b740e102e1dbae1cbb0cb83550909ea88700000000" '[{"txid":"0e28320c199016d701190b6761163c062624e13990cba810a9f238f1e7230b5f","vout":0,"scriptPubKey":"76a914fbffa997e319a72ba2a812933626f6d658dc534b88ac"}]' '["5KNuBpKnwWpjCkQRGbd4Dx26vQ5KuwovAvuHYu1S4KjM51vVKbY"]' "ALL"

		bitcoin-cli -rpcuser=rpc -rpcpassword=x -rpcport=10340 sendrawtransaction 02000000015f0b23e7f138f2a910a8cb9039e12426063c1661670b1901d71690190c32280e000000008b483045022100b1122edb0d569ea90e8fd5fee24dfc2ed464ff34937c893ef18d7a49922504cb0220171ad7e8e0890d8285eafa69fbfcc505e193c2b1fca620f34971f133cb896b90014104a434aa7ac19a69558243772914f79281b555ffed2f825a78006ef6f51b1ed6f48add6538e56d067f7d4f6d4cb9efb59d6e83ff26e40a0559bd0c1e53456c1617ffffffff0180fd9c760000000017a914feb1a122b740e102e1dbae1cbb0cb83550909ea88700000000

		txid: ca122bfb7fa2a0d5f7057297e2b6d978cf880536c744f2dae156b8e5b2ba04ae


##### Second P2SH transaction (REG TX)

1. Constructing UPD & RVC redeem script

		IF DROP <pk_o> CHECKSIG ELSE 3 <new_pk> <pk_o> <pk_f> 3 CHECKMULTISIG ENDIF

		63754104a434aa7ac19a69558243772914f79281b555ffed2f825a78006ef6f51b1ed6f48add6538e56d067f7d4f6d4cb9efb59d6e83ff26e40a0559bd0c1e53456c1617ac67534104f6dcea0cb836e2343b96b6fae8b8aa09f0488d58c469830e16e1a5db6e471ad32b038d583d7fc8e32b7e8d68c19b03cdfad4b33811c061040329f6a2fd9714d54104a434aa7ac19a69558243772914f79281b555ffed2f825a78006ef6f51b1ed6f48add6538e56d067f7d4f6d4cb9efb59d6e83ff26e40a0559bd0c1e53456c16174104c11f0db597b264746e3042096955a5f8509d2374320b02900c2b9995073a524498d7d8345b5d4a8d0a188c5f4a599ec97d592c6a7a38a00fecc1c46dd7bd405953ae68

		Try to test the redeem script:

		bitcoin-cli -rpcuser=rpc -rpcpassword=x -rpcport=10340 decodescript 63754104a434aa7ac19a69558243772914f79281b555ffed2f825a78006ef6f51b1ed6f48add6538e56d067f7d4f6d4cb9efb59d6e83ff26e40a0559bd0c1e53456c1617ac67534104f6dcea0cb836e2343b96b6fae8b8aa09f0488d58c469830e16e1a5db6e471ad32b038d583d7fc8e32b7e8d68c19b03cdfad4b33811c061040329f6a2fd9714d54104a434aa7ac19a69558243772914f79281b555ffed2f825a78006ef6f51b1ed6f48add6538e56d067f7d4f6d4cb9efb59d6e83ff26e40a0559bd0c1e53456c16174104c11f0db597b264746e3042096955a5f8509d2374320b02900c2b9995073a524498d7d8345b5d4a8d0a188c5f4a599ec97d592c6a7a38a00fecc1c46dd7bd405953ae68

		{
		  "asm": "OP_IF OP_DROP 04a434aa7ac19a69558243772914f79281b555ffed2f825a78006ef6f51b1ed6f48add6538e56d067f7d4f6d4cb9efb59d6e83ff26e40a0559bd0c1e53456c1617 OP_CHECKSIG OP_ELSE 3 04f6dcea0cb836e2343b96b6fae8b8aa09f0488d58c469830e16e1a5db6e471ad32b038d583d7fc8e32b7e8d68c19b03cdfad4b33811c061040329f6a2fd9714d5 04a434aa7ac19a69558243772914f79281b555ffed2f825a78006ef6f51b1ed6f48add6538e56d067f7d4f6d4cb9efb59d6e83ff26e40a0559bd0c1e53456c1617 04c11f0db597b264746e3042096955a5f8509d2374320b02900c2b9995073a524498d7d8345b5d4a8d0a188c5f4a599ec97d592c6a7a38a00fecc1c46dd7bd4059 3 OP_CHECKMULTISIG OP_ENDIF",
		  "type": "nonstandard",
		  "p2sh": "3HLyqAMUizS9nkE2K4gNV4t57z1Cm18GPz"
		}

2. Constructing the locking script

		OP_HASH160 [Hash160(redeemScript)] OP_EQUAL

		OP_HASH160 3HLyqAMUizS9nkE2K4gNV4t57z1Cm18GPz OP_EQUAL

		a914abb7f242eb213ff67159d1a49d58ae19ef2fbee687


3. Creating a P2SH transaction

	Previous txid: ca122bfb7fa2a0d5f7057297e2b6d978cf880536c744f2dae156b8e5b2ba04ae

		bitcoin-cli -rpcuser=rpc -rpcpassword=x -rpcport=10340  createrawtransaction '[{"txid":"ca122bfb7fa2a0d5f7057297e2b6d978cf880536c744f2dae156b8e5b2ba04ae","vout":0}]' '{"3HLyqAMUizS9nkE2K4gNV4t57z1Cm18GPz":19.85}'

		bitcoin-cli -rpcuser=rpc -rpcpassword=x -rpcport=10340  signrawtransaction "0200000001ae04bab2e5b856e1daf244c7360588cf78d9b6e2977205f7d5a0a27ffb2b12ca0000000000ffffffff0140b250760000000017a914abb7f242eb213ff67159d1a49d58ae19ef2fbee68700000000" '[{"txid":"ca122bfb7fa2a0d5f7057297e2b6d978cf880536c744f2dae156b8e5b2ba04ae","vout":0,"scriptPubKey":"a914feb1a122b740e102e1dbae1cbb0cb83550909ea887","redeemScript":"14cb045dd7539de812bf2d5af41780003dc604d3507576a9142abb1f98b76bdc4380138c09040a5838b6847f1288ac"}]' '["5K1DBNURcAC1Vd4DzZTdLTMteeJNoKYg5CXXKDp4BDyExbRRsn2"]' "ALL"

		bitcoin-cli -rpcuser=rpc -rpcpassword=x -rpcport=10340 sendrawtransaction 0200000001ae04bab2e5b856e1daf244c7360588cf78d9b6e2977205f7d5a0a27ffb2b12ca00000000ba47304402202c25bda188c6a2a1145bc69575babd336f309a1df29434cf6392c17f1da2421e022022d416c31935ebaf604566fd52b6292c64620333fe77ec1d18a3a49666a1f11c014104c11f0db597b264746e3042096955a5f8509d2374320b02900c2b9995073a524498d7d8345b5d4a8d0a188c5f4a599ec97d592c6a7a38a00fecc1c46dd7bd40592f14cb045dd7539de812bf2d5af41780003dc604d3507576a9142abb1f98b76bdc4380138c09040a5838b6847f1288acffffffff0140b250760000000017a914abb7f242eb213ff67159d1a49d58ae19ef2fbee68700000000

		txid: 52873fdbda1c813bfb5a5b6c2a7c0cdee196b36b96be352a33a2c18c5cb5afc0


##### Third P2SH transaction (modifying pointer in update transaction)

1. Constructing UPD & RVC redeem script

		modified pointer + redeemscript

		14cb045dd7539de812bf2d5af41780003dc604d35063754104a434aa7ac19a69558243772914f79281b555ffed2f825a78006ef6f51b1ed6f48add6538e56d067f7d4f6d4cb9efb59d6e83ff26e40a0559bd0c1e53456c1617ac67534104f6dcea0cb836e2343b96b6fae8b8aa09f0488d58c469830e16e1a5db6e471ad32b038d583d7fc8e32b7e8d68c19b03cdfad4b33811c061040329f6a2fd9714d54104a434aa7ac19a69558243772914f79281b555ffed2f825a78006ef6f51b1ed6f48add6538e56d067f7d4f6d4cb9efb59d6e83ff26e40a0559bd0c1e53456c16174104c11f0db597b264746e3042096955a5f8509d2374320b02900c2b9995073a524498d7d8345b5d4a8d0a188c5f4a599ec97d592c6a7a38a00fecc1c46dd7bd405953ae68

2. Creating a P2SH transaction

	Previous txid: 52873fdbda1c813bfb5a5b6c2a7c0cdee196b36b96be352a33a2c18c5cb5afc0

		bitcoin-cli -rpcuser=rpc -rpcpassword=x -rpcport=10340  createrawtransaction '[{"txid":"52873fdbda1c813bfb5a5b6c2a7c0cdee196b36b96be352a33a2c18c5cb5afc0","vout":0}]' '{"3HLyqAMUizS9nkE2K4gNV4t57z1Cm18GPz":19.8}'

		bitcoin-cli -rpcuser=rpc -rpcpassword=x -rpcport=10340  signrawtransaction "0200000001c0afb55c8cc1a2332a35be966bb396e1de0c7c2a6c5b5afb3b811cdadb3f87520000000000ffffffff01006704760000000017a914abb7f242eb213ff67159d1a49d58ae19ef2fbee68700000000" '[{"txid":"52873fdbda1c813bfb5a5b6c2a7c0cdee196b36b96be352a33a2c18c5cb5afc0","vout":0,"scriptPubKey":"a914abb7f242eb213ff67159d1a49d58ae19ef2fbee687","redeemScript":"14cb045dd7539de812bf2d5af41780003dc604d35063754104a434aa7ac19a69558243772914f79281b555ffed2f825a78006ef6f51b1ed6f48add6538e56d067f7d4f6d4cb9efb59d6e83ff26e40a0559bd0c1e53456c1617ac67534104f6dcea0cb836e2343b96b6fae8b8aa09f0488d58c469830e16e1a5db6e471ad32b038d583d7fc8e32b7e8d68c19b03cdfad4b33811c061040329f6a2fd9714d54104a434aa7ac19a69558243772914f79281b555ffed2f825a78006ef6f51b1ed6f48add6538e56d067f7d4f6d4cb9efb59d6e83ff26e40a0559bd0c1e53456c16174104c11f0db597b264746e3042096955a5f8509d2374320b02900c2b9995073a524498d7d8345b5d4a8d0a188c5f4a599ec97d592c6a7a38a00fecc1c46dd7bd405953ae68"}]' '["5KNuBpKnwWpjCkQRGbd4Dx26vQ5KuwovAvuHYu1S4KjM51vVKbY"]' "ALL"

		bitcoin-cli -rpcuser=rpc -rpcpassword=x -rpcport=10340  sendrawtransaction 0200000001c0afb55c8cc1a2332a35be966bb396e1de0c7c2a6c5b5afb3b811cdadb3f875200000000fd7201483045022100ec98eec97105f3964ab83bb54115d9849563e9940295d874ec9ad7fb92d10b9c022003397d94f60f9b7f771d974ff0de778c2c8732ce7c7ab44ec8353c82450440f10114cb045dd7539de812bf2d5af41780003dc604d350514d100163754104a434aa7ac19a69558243772914f79281b555ffed2f825a78006ef6f51b1ed6f48add6538e56d067f7d4f6d4cb9efb59d6e83ff26e40a0559bd0c1e53456c1617ac67534104f6dcea0cb836e2343b96b6fae8b8aa09f0488d58c469830e16e1a5db6e471ad32b038d583d7fc8e32b7e8d68c19b03cdfad4b33811c061040329f6a2fd9714d54104a434aa7ac19a69558243772914f79281b555ffed2f825a78006ef6f51b1ed6f48add6538e56d067f7d4f6d4cb9efb59d6e83ff26e40a0559bd0c1e53456c16174104c11f0db597b264746e3042096955a5f8509d2374320b02900c2b9995073a524498d7d8345b5d4a8d0a188c5f4a599ec97d592c6a7a38a00fecc1c46dd7bd405953ae68ffffffff01006704760000000017a914abb7f242eb213ff67159d1a49d58ae19ef2fbee68700000000

		txid: eb1b34b0c6545885e3beac7f5ec59388a7935eb11816bd3f69b34f2cb9a9352e

##### Fourth P2SH transaction (modifying keys in update and revoke transaction)

1. Constructing the NEW UPD & RVC redeem script

	If you want to modify the online key, you have

	`IF
	DROP <modified pk_o> CHECKSIG
	ELSE
	3 <the second new_pk> <modified pk_o> <pk_f> 3 CHECKMULTISIG
	ENDIF`

	If you want to modify the offline key, you have

	`IF
	DROP <pk_o> CHECKSIG
	ELSE
	3 <the second new_pk> <pk_o> <modified pk_f> 3 CHECKMULTISIG
	ENDIF`

	We take the first one as the example to get the hash value (payment address) of this new redeem script:

		Replace parameters and stack format:
		63
		75 41 04f6dcea0cb836e2343b96b6fae8b8aa09f0488d58c469830e16e1a5db6e471ad32b038d583d7fc8e32b7e8d68c19b03cdfad4b33811c061040329f6a2fd9714d5 ac
		67
		53 41 041681472282f8138eaad307dab831c3271abd8365c023d18853eee1b1e8ac64e4b5479fd7eb284fb43a0952791636fb2953ec63ab9fc6bef36e880b73a1c4ec84 41 04f6dcea0cb836e2343b96b6fae8b8aa09f0488d58c469830e16e1a5db6e471ad32b038d583d7fc8e32b7e8d68c19b03cdfad4b33811c061040329f6a2fd9714d5 41 04c11f0db597b264746e3042096955a5f8509d2374320b02900c2b9995073a524498d7d8345b5d4a8d0a188c5f4a599ec97d592c6a7a38a00fecc1c46dd7bd4059 53 ae
		68

		Namely,
		63754104f6dcea0cb836e2343b96b6fae8b8aa09f0488d58c469830e16e1a5db6e471ad32b038d583d7fc8e32b7e8d68c19b03cdfad4b33811c061040329f6a2fd9714d5ac675341041681472282f8138eaad307dab831c3271abd8365c023d18853eee1b1e8ac64e4b5479fd7eb284fb43a0952791636fb2953ec63ab9fc6bef36e880b73a1c4ec844104f6dcea0cb836e2343b96b6fae8b8aa09f0488d58c469830e16e1a5db6e471ad32b038d583d7fc8e32b7e8d68c19b03cdfad4b33811c061040329f6a2fd9714d54104c11f0db597b264746e3042096955a5f8509d2374320b02900c2b9995073a524498d7d8345b5d4a8d0a188c5f4a599ec97d592c6a7a38a00fecc1c46dd7bd405953ae68

	Try to test the redeem script:

		bitcoin-cli -rpcuser=rpc -rpcpassword=x -rpcport=10340 decodescript 63754104f6dcea0cb836e2343b96b6fae8b8aa09f0488d58c469830e16e1a5db6e471ad32b038d583d7fc8e32b7e8d68c19b03cdfad4b33811c061040329f6a2fd9714d5ac675341041681472282f8138eaad307dab831c3271abd8365c023d18853eee1b1e8ac64e4b5479fd7eb284fb43a0952791636fb2953ec63ab9fc6bef36e880b73a1c4ec844104f6dcea0cb836e2343b96b6fae8b8aa09f0488d58c469830e16e1a5db6e471ad32b038d583d7fc8e32b7e8d68c19b03cdfad4b33811c061040329f6a2fd9714d54104c11f0db597b264746e3042096955a5f8509d2374320b02900c2b9995073a524498d7d8345b5d4a8d0a188c5f4a599ec97d592c6a7a38a00fecc1c46dd7bd405953ae68
		{
		  "asm": "OP_IF OP_DROP 04f6dcea0cb836e2343b96b6fae8b8aa09f0488d58c469830e16e1a5db6e471ad32b038d583d7fc8e32b7e8d68c19b03cdfad4b33811c061040329f6a2fd9714d5 OP_CHECKSIG OP_ELSE 3 041681472282f8138eaad307dab831c3271abd8365c023d18853eee1b1e8ac64e4b5479fd7eb284fb43a0952791636fb2953ec63ab9fc6bef36e880b73a1c4ec84 04f6dcea0cb836e2343b96b6fae8b8aa09f0488d58c469830e16e1a5db6e471ad32b038d583d7fc8e32b7e8d68c19b03cdfad4b33811c061040329f6a2fd9714d5 04c11f0db597b264746e3042096955a5f8509d2374320b02900c2b9995073a524498d7d8345b5d4a8d0a188c5f4a599ec97d592c6a7a38a00fecc1c46dd7bd4059 3 OP_CHECKMULTISIG OP_ENDIF",
		  "type": "nonstandard",
		  "p2sh": "37Ts7i7y9fPxqtCXahqWnCS8pLno89iHKb"
		}

2. Creating a P2SH transaction

	Previous txid: eb1b34b0c6545885e3beac7f5ec59388a7935eb11816bd3f69b34f2cb9a9352e

		bitcoin-cli -rpcuser=rpc -rpcpassword=x -rpcport=10340  createrawtransaction '[{"txid":"eb1b34b0c6545885e3beac7f5ec59388a7935eb11816bd3f69b34f2cb9a9352e","vout":0}]' '{"37Ts7i7y9fPxqtCXahqWnCS8pLno89iHKb":19.75}'

		bitcoin-cli -rpcuser=rpc -rpcpassword=x -rpcport=10340 signrawtransaction "02000000012e35a9b92c4fb3693fbd1618b15e93a78893c55e7facbee3855854c6b0341beb0000000000ffffffff01c01bb8750000000017a9143f53febdcaac76d550ca8d3bd7cc535eff975ed08700000000" '[{"txid":"eb1b34b0c6545885e3beac7f5ec59388a7935eb11816bd3f69b34f2cb9a9352e","vout":0,"scriptPubKey":"a914abb7f242eb213ff67159d1a49d58ae19ef2fbee687","redeemScript":"63754104a434aa7ac19a69558243772914f79281b555ffed2f825a78006ef6f51b1ed6f48add6538e56d067f7d4f6d4cb9efb59d6e83ff26e40a0559bd0c1e53456c1617ac67534104f6dcea0cb836e2343b96b6fae8b8aa09f0488d58c469830e16e1a5db6e471ad32b038d583d7fc8e32b7e8d68c19b03cdfad4b33811c061040329f6a2fd9714d54104a434aa7ac19a69558243772914f79281b555ffed2f825a78006ef6f51b1ed6f48add6538e56d067f7d4f6d4cb9efb59d6e83ff26e40a0559bd0c1e53456c16174104c11f0db597b264746e3042096955a5f8509d2374320b02900c2b9995073a524498d7d8345b5d4a8d0a188c5f4a599ec97d592c6a7a38a00fecc1c46dd7bd405953ae68"}]' '["5Kh9WZCtQ79B7b7xmTqEUTchRuPs8MjNVB7CYmRJ1WiNQK1dzBi","5KNuBpKnwWpjCkQRGbd4Dx26vQ5KuwovAvuHYu1S4KjM51vVKbY","5K1DBNURcAC1Vd4DzZTdLTMteeJNoKYg5CXXKDp4BDyExbRRsn2"]' "ALL"

		bitcoin-cli -rpcuser=rpc -rpcpassword=x -rpcport=10340  sendrawtransaction 02000000012e35a9b92c4fb3693fbd1618b15e93a78893c55e7facbee3855854c6b0341beb00000000fdee0100473044022022000b2190392c116b877caef7c1e7191a280aa0e4455d0792f650056f074b410220472a72c3838dd30e80c9aba55cc681f3537b8a1fd72a4a84e24446c50a03b61d0147304402203aa94b71a2a320e4cff5cc938f430f7c922ea076058bca693376aaccb38d99cb02204b24ecc3cac727761f355bfa34f29c51f43a2e40db885cdc114b5e2ff8f00f6901483045022100b5544a98f0226c6145f66d697567071f4de1ef3fcc3d746eeb0f87aa4f504aa102205bcf85844434c8a79da246e8c94e6f068c3d2cd5978594972c19cb030a5d91d801004d100163754104a434aa7ac19a69558243772914f79281b555ffed2f825a78006ef6f51b1ed6f48add6538e56d067f7d4f6d4cb9efb59d6e83ff26e40a0559bd0c1e53456c1617ac67534104f6dcea0cb836e2343b96b6fae8b8aa09f0488d58c469830e16e1a5db6e471ad32b038d583d7fc8e32b7e8d68c19b03cdfad4b33811c061040329f6a2fd9714d54104a434aa7ac19a69558243772914f79281b555ffed2f825a78006ef6f51b1ed6f48add6538e56d067f7d4f6d4cb9efb59d6e83ff26e40a0559bd0c1e53456c16174104c11f0db597b264746e3042096955a5f8509d2374320b02900c2b9995073a524498d7d8345b5d4a8d0a188c5f4a599ec97d592c6a7a38a00fecc1c46dd7bd405953ae68ffffffff01c01bb8750000000017a9143f53febdcaac76d550ca8d3bd7cc535eff975ed08700000000

		txid: 52ab6bc77ed743e453a1db56791b8c8a4b1294a9dd05fa2984480728bfe1f90c

References:
1. Bitcoin-BIMS/doc/bitcoin-regtest-buildtxbyhand-tutorial.md
2. Bitcoin-BIMS/doc/bitcoin-regtest-addresstokeys.md
