send coins to online address

	bitcoin-cli -testnet -rpcuser=rpc -rpcpassword=x -rpcport=10340 sendtoaddress n4VQAwgPUUdsYFskbkzjx1AwmoskhCVYNE 19.95

	txid: 27a9ab9fc1af7855201c163e97fc2777bd55ce7964cd971242b27d62d2ed873b

pre-reg:

	bitcoin-cli -testnet -rpcuser=rpc -rpcpassword=x -rpcport=10340  createrawtransaction '[{"txid":"27a9ab9fc1af7855201c163e97fc2777bd55ce7964cd971242b27d62d2ed873b","vout":1}]' '{"2NGTvQvDwv8RvAJvCYkpJSotu79Pyd5s3Q6":19.9}'

	02000000013b87edd2627db2421297cd6479ce55bd7727fc973e161c205578afc19faba9270100000000ffffffff0180fd9c760000000017a914feb1a122b740e102e1dbae1cbb0cb83550909ea88700000000

	bitcoin-cli -testnet -rpcuser=rpc -rpcpassword=x -rpcport=10340 signrawtransaction "02000000013b87edd2627db2421297cd6479ce55bd7727fc973e161c205578afc19faba9270100000000ffffffff0180fd9c760000000017a914feb1a122b740e102e1dbae1cbb0cb83550909ea88700000000" '[{"txid":"27a9ab9fc1af7855201c163e97fc2777bd55ce7964cd971242b27d62d2ed873b","vout":1,"scriptPubKey":"76a914fbffa997e319a72ba2a812933626f6d658dc534b88ac"}]' '["939XmZ9LXjtsAouhtwWy6Ya4a4S357M7WsmEdXMwQ4UPr7LQo3F"]' "ALL"

	bitcoin-cli -testnet -rpcuser=rpc -rpcpassword=x -rpcport=10340 sendrawtransaction
	02000000013b87edd2627db2421297cd6479ce55bd7727fc973e161c205578afc19faba927010000008a473044022069ed0f221aa95145649125e0cc51f1298a4ca7587310eca24479b35488729d91022030b72c9205d2c430036d8fdac15ffeec0fd842e68550de00998b5f54a58b6ce4014104a434aa7ac19a69558243772914f79281b555ffed2f825a78006ef6f51b1ed6f48add6538e56d067f7d4f6d4cb9efb59d6e83ff26e40a0559bd0c1e53456c1617ffffffff0180fd9c760000000017a914feb1a122b740e102e1dbae1cbb0cb83550909ea88700000000

	bitcoin-cli -testnet -rpcuser=rpc -rpcpassword=x -rpcport=10340 sendrawtransaction 02000000013b87edd2627db2421297cd6479ce55bd7727fc973e161c205578afc19faba927010000008a473044022069ed0f221aa95145649125e0cc51f1298a4ca7587310eca24479b35488729d91022030b72c9205d2c430036d8fdac15ffeec0fd842e68550de00998b5f54a58b6ce4014104a434aa7ac19a69558243772914f79281b555ffed2f825a78006ef6f51b1ed6f48add6538e56d067f7d4f6d4cb9efb59d6e83ff26e40a0559bd0c1e53456c1617ffffffff0180fd9c760000000017a914feb1a122b740e102e1dbae1cbb0cb83550909ea88700000000

	txid: 94fd036aba8550ffc52b099756a40b8ef623538c179fb5713ce6e780945967a0


reg tx:

	bitcoin-cli -testnet -rpcuser=rpc -rpcpassword=x -rpcport=10340 createrawtransaction '[{"txid":"94fd036aba8550ffc52b099756a40b8ef623538c179fb5713ce6e780945967a0","vout":0}]' '{"2N8uBtuHWLSwVzXrZzCJF71sLLLDNWa9t2s":19.85}'

	0200000001a067599480e7e63c71b59f178c5323f68e0ba45697092bc5ff5085ba6a03fd940000000000ffffffff0140b250760000000017a914abb7f242eb213ff67159d1a49d58ae19ef2fbee68700000000

	bitcoin-cli -testnet -rpcuser=rpc -rpcpassword=x -rpcport=10340 signrawtransaction "0200000001a067599480e7e63c71b59f178c5323f68e0ba45697092bc5ff5085ba6a03fd940000000000ffffffff0140b250760000000017a914abb7f242eb213ff67159d1a49d58ae19ef2fbee68700000000" '[{"txid":"94fd036aba8550ffc52b099756a40b8ef623538c179fb5713ce6e780945967a0","vout":0,"scriptPubKey":"a914feb1a122b740e102e1dbae1cbb0cb83550909ea887","redeemScript":"14cb045dd7539de812bf2d5af41780003dc604d3507576a9142abb1f98b76bdc4380138c09040a5838b6847f1288ac"}]' '["92mqm7HyCPG9TgZWcuMYD3urJJf5xV5sR9PUPrAZWxiHja4iAiz"]' "ALL"

	bitcoin-cli -testnet -rpcuser=rpc -rpcpassword=x -rpcport=10340 sendrawtransaction 0200000001a067599480e7e63c71b59f178c5323f68e0ba45697092bc5ff5085ba6a03fd9400000000ba47304402200f3421f3f159935cfe08d442df843c9d3ac8212c6c38bf992749ab7a1667ec0c022003dd0248a28a249708e7aeb2439d0c103698d8c330e96b7e9ba8f28a0f757c08014104c11f0db597b264746e3042096955a5f8509d2374320b02900c2b9995073a524498d7d8345b5d4a8d0a188c5f4a599ec97d592c6a7a38a00fecc1c46dd7bd40592f14cb045dd7539de812bf2d5af41780003dc604d3507576a9142abb1f98b76bdc4380138c09040a5838b6847f1288acffffffff0140b250760000000017a914abb7f242eb213ff67159d1a49d58ae19ef2fbee68700000000

thrid tx:

	bitcoin-cli -testnet -rpcuser=rpc -rpcpassword=x -rpcport=10340 createrawtransaction '[{"txid":"d209d85ad00a403f1c742f958132bf15317f30cdb76136d72ded4d90a3cfdb01","vout":0}]' '{"2N8uBtuHWLSwVzXrZzCJF71sLLLDNWa9t2s":19.8}'

	020000000101dbcfa3904ded2dd73661b7cd307f3115bf3281952f741c3f400ad05ad809d20000000000ffffffff01006704760000000017a914abb7f242eb213ff67159d1a49d58ae19ef2fbee68700000000

	bitcoin-cli -testnet -rpcuser=rpc -rpcpassword=x -rpcport=10340 signrawtransaction "020000000101dbcfa3904ded2dd73661b7cd307f3115bf3281952f741c3f400ad05ad809d20000000000ffffffff01006704760000000017a914abb7f242eb213ff67159d1a49d58ae19ef2fbee68700000000" '[{"txid":"d209d85ad00a403f1c742f958132bf15317f30cdb76136d72ded4d90a3cfdb01","vout":0,"scriptPubKey":"a914abb7f242eb213ff67159d1a49d58ae19ef2fbee687","redeemScript":"14cb045dd7539de812bf2d5af41780003dc604d35063754104a434aa7ac19a69558243772914f79281b555ffed2f825a78006ef6f51b1ed6f48add6538e56d067f7d4f6d4cb9efb59d6e83ff26e40a0559bd0c1e53456c1617ac67534104f6dcea0cb836e2343b96b6fae8b8aa09f0488d58c469830e16e1a5db6e471ad32b038d583d7fc8e32b7e8d68c19b03cdfad4b33811c061040329f6a2fd9714d54104a434aa7ac19a69558243772914f79281b555ffed2f825a78006ef6f51b1ed6f48add6538e56d067f7d4f6d4cb9efb59d6e83ff26e40a0559bd0c1e53456c16174104c11f0db597b264746e3042096955a5f8509d2374320b02900c2b9995073a524498d7d8345b5d4a8d0a188c5f4a599ec97d592c6a7a38a00fecc1c46dd7bd405953ae68"}]' '["939XmZ9LXjtsAouhtwWy6Ya4a4S357M7WsmEdXMwQ4UPr7LQo3F"]' "ALL"

	bitcoin-cli -testnet -rpcuser=rpc -rpcpassword=x -rpcport=10340 sendrawtransaction 020000000101dbcfa3904ded2dd73661b7cd307f3115bf3281952f741c3f400ad05ad809d200000000fd710147304402200153da66dafef4034c6caba0c2831bacdea7d9017b30aae0efd7011c937c0fa50220355aa47cae5a867e16e28559deb3b4b6dccdc9352b5b56969ee05188b0d439940114cb045dd7539de812bf2d5af41780003dc604d350514d100163754104a434aa7ac19a69558243772914f79281b555ffed2f825a78006ef6f51b1ed6f48add6538e56d067f7d4f6d4cb9efb59d6e83ff26e40a0559bd0c1e53456c1617ac67534104f6dcea0cb836e2343b96b6fae8b8aa09f0488d58c469830e16e1a5db6e471ad32b038d583d7fc8e32b7e8d68c19b03cdfad4b33811c061040329f6a2fd9714d54104a434aa7ac19a69558243772914f79281b555ffed2f825a78006ef6f51b1ed6f48add6538e56d067f7d4f6d4cb9efb59d6e83ff26e40a0559bd0c1e53456c16174104c11f0db597b264746e3042096955a5f8509d2374320b02900c2b9995073a524498d7d8345b5d4a8d0a188c5f4a599ec97d592c6a7a38a00fecc1c46dd7bd405953ae68ffffffff01006704760000000017a914abb7f242eb213ff67159d1a49d58ae19ef2fbee68700000000


forth tx:

	bitcoin-cli -testnet -rpcuser=rpc -rpcpassword=x -rpcport=10340 createrawtransaction  '[{"txid":"70f9525e59008514bbe815ec8d4704cc78f0bc5a20ea9e08d354b791c1d7bbc0","vout":0}]' '{"2My25BT3zm7uK3fq5FqTPQ9RQ2gzxsWUc5B":19.75}'

	0200000001c0bbd7c191b754d3089eea205abcf078cc04478dec15e8bb148500595e52f9700000000000ffffffff01c01bb8750000000017a9143f53febdcaac76d550ca8d3bd7cc535eff975ed08700000000

	bitcoin-cli -testnet -rpcuser=rpc -rpcpassword=x -rpcport=10340 signrawtransaction "0200000001c0bbd7c191b754d3089eea205abcf078cc04478dec15e8bb148500595e52f9700000000000ffffffff01c01bb8750000000017a9143f53febdcaac76d550ca8d3bd7cc535eff975ed08700000000" '[{"txid":"70f9525e59008514bbe815ec8d4704cc78f0bc5a20ea9e08d354b791c1d7bbc0","vout":0,"scriptPubKey":"a914abb7f242eb213ff67159d1a49d58ae19ef2fbee687","redeemScript":"63754104a434aa7ac19a69558243772914f79281b555ffed2f825a78006ef6f51b1ed6f48add6538e56d067f7d4f6d4cb9efb59d6e83ff26e40a0559bd0c1e53456c1617ac67534104f6dcea0cb836e2343b96b6fae8b8aa09f0488d58c469830e16e1a5db6e471ad32b038d583d7fc8e32b7e8d68c19b03cdfad4b33811c061040329f6a2fd9714d54104a434aa7ac19a69558243772914f79281b555ffed2f825a78006ef6f51b1ed6f48add6538e56d067f7d4f6d4cb9efb59d6e83ff26e40a0559bd0c1e53456c16174104c11f0db597b264746e3042096955a5f8509d2374320b02900c2b9995073a524498d7d8345b5d4a8d0a188c5f4a599ec97d592c6a7a38a00fecc1c46dd7bd405953ae68"}]' '["93Tn6J2RzLDK5edFPoj9M4Af5ZkaHXGZq7y9dPmoMFTRBNLFGsA","939XmZ9LXjtsAouhtwWy6Ya4a4S357M7WsmEdXMwQ4UPr7LQo3F","92mqm7HyCPG9TgZWcuMYD3urJJf5xV5sR9PUPrAZWxiHja4iAiz"]' "ALL"

	bitcoin-cli -testnet -rpcuser=rpc -rpcpassword=x -rpcport=10340 sendrawtransaction
	0200000001c0bbd7c191b754d3089eea205abcf078cc04478dec15e8bb148500595e52f97000000000fded010047304402205bc70a9df8dd8f56d157e2cf6a98948a08736a7683b1bbc3f865cf860b2d62d20220522c82c830a2ca425d0128c901b39f41d6b03ca28a931aec97be7497aeb364100147304402204c82ca5d47176be0b5875876c0cd94f14237fd9af8fcd3b53e390ce9fe9058c4022035ee45acb2a0a6ef239f006c475a5810c1b27a9bdde56f087612a3e646474ee701473044022026d08421f7ffe69a6a6824ef05fc53b9ba6994bd11c543b6ff0b6fb7865e48840220224d74eb7870812f5f04378eb38ce852d5a91215e37639b9b19a525f3b28641c01004d100163754104a434aa7ac19a69558243772914f79281b555ffed2f825a78006ef6f51b1ed6f48add6538e56d067f7d4f6d4cb9efb59d6e83ff26e40a0559bd0c1e53456c1617ac67534104f6dcea0cb836e2343b96b6fae8b8aa09f0488d58c469830e16e1a5db6e471ad32b038d583d7fc8e32b7e8d68c19b03cdfad4b33811c061040329f6a2fd9714d54104a434aa7ac19a69558243772914f79281b555ffed2f825a78006ef6f51b1ed6f48add6538e56d067f7d4f6d4cb9efb59d6e83ff26e40a0559bd0c1e53456c16174104c11f0db597b264746e3042096955a5f8509d2374320b02900c2b9995073a524498d7d8345b5d4a8d0a188c5f4a599ec97d592c6a7a38a00fecc1c46dd7bd405953ae68ffffffff01c01bb8750000000017a9143f53febdcaac76d550ca8d3bd7cc535eff975ed08700000000
